:020000040800F2
:1000000000500020C9010008190200081902000868
:100010001902000819020008190200080000000077
:1000200000000000000000000000000019020008AD
:100030001902000800000000190200081902000857
:100040001902000819020008190200081902000824
:100050001902000819020008190200081902000814
:100060001902000819020008190200081902000804
:1000700019020008190200081902000819020008F4
:1000800019020008190200081902000819020008E4
:1000900019020008190200081902000819020008D4
:1000A00019020008190200081902000819020008C4
:1000B00019020008190200081902000819020008B4
:1000C00019020008190200081902000819020008A4
:1000D0001902000819020008190200081902000894
:1000E00019020008190200080000000019020008A7
:1000F0001902000819020008190200081902000874
:100100001902000819020008190200081902000863
:100110001902000819020008190200081902000853
:100120001902000819020008190200081902000843
:1001300010B5054C237833B9044B13B10448AFF321
:1001400000800123237010BD00000020000000008B
:100150006402000808B5034B1BB103490348AFF321
:10016000008008BD000000000400002064020008B8
:100170000F48016841F0040141F4804101600D48DD
:10018000016821F0F00141F0B00101600A4841210D
:100190000901033101600948082141F4005101605F
:1001A00007480168C909FBD3064841210160F7E708
:1001B0001810024004080140083801400C38014082
:1001C00000380140043801400D488546AFF30080F7
:1001D0000C480D490D4A002302E0D458C4500433A2
:1001E000C4188C42F9D30A4A0A4C002301E0136078
:1001F0000432A242FBD300F011F8FFF7B9FFFEE78B
:1002000000500020000000200000002084020008B0
:10021000000000201C000020FEE7000070B5002652
:100220000C4D0D4C641BA410A64209D100F01AF825
:1002300000260A4D0A4C641BA410A64205D170BDCD
:1002400055F8043B98470136EEE755F8043B9847CC
:100250000136F2E77C0200087C0200087C020008FC
:1002600080020008F8B500BFF8BC08BC9E46704785
:0C027000F8B500BFF8BC08BC9E46704703
:04027C005501000820
:040280003101000840
:04000005080001C925
:00000001FF
