:020000040800F2
:1000000000500020A9010008F9010008F9010008CA
:10001000F9010008F9010008F901000800000000DA
:10002000000000000000000000000000F9010008CE
:10003000F901000800000000F9010008F9010008BA
:10004000F9010008F9010008F9010008F9010008A8
:10005000F9010008F9010008F9010008F901000898
:10006000F9010008F9010008F9010008F901000888
:10007000F9010008F9010008F9010008F901000878
:10008000F9010008F9010008F9010008F901000868
:10009000F9010008F9010008F9010008F901000858
:1000A000F9010008F9010008F9010008F901000848
:1000B000F9010008F9010008F9010008F901000838
:1000C000F9010008F9010008F9010008F901000828
:1000D000F9010008F9010008F9010008F901000818
:1000E000F9010008F901000800000000F90100080A
:1000F000F9010008F9010008F9010008F9010008F8
:10010000F9010008F9010008F9010008F9010008E7
:10011000F9010008F9010008F9010008F9010008D7
:10012000F9010008F9010008F9010008F9010008C7
:1001300010B5054C237833B9044B13B10448AFF321
:1001400000800123237010BD040000200000000087
:100150004402000808B5034B1BB103490348AFF341
:10016000008008BD000000000800002044020008D4
:1001700010B54FF00A004FF0050100EB0102034CEF
:1001800022601046BDE810407047000000000020CB
:1001900080B500AFFFF7ECFF0346024A136000BFD3
:1001A000FDE700BF200000200D488546AFF300802A
:1001B0000C480D490D4A002302E0D458C4500433C2
:1001C000C4188C42F9D30A4A0A4C002301E0136098
:1001D0000432A242FBD300F011F8FFF7D9FFFEE78B
:1001E00000500020000000200400002064020008ED
:1001F0000400002024000020FEE7000070B5002667
:100200000C4D0D4C641BA410A64209D100F01AF845
:1002100000260A4D0A4C641BA410A64205D170BDED
:1002200055F8043B98470136EEE755F8043B9847EC
:100230000136F2E75C0200085C0200085C0200087C
:1002400060020008F8B500BFF8BC08BC9E467047C5
:0C025000F8B500BFF8BC08BC9E46704723
:04025C005501000840
:040260003101000860
:040264000000000096
:04000005080001A945
:00000001FF
